:040000006AEF06F0AD
:10000800F2A40BD0FC0ED76E180ED66EF294010E29
:0C0018005C26000E5D225E225F221100BB
:0A002400210E0D6E0D2EFED7120006
:10002E000F0E0C6E470E0D6E0D2EFED70C2EFCD73E
:06003E00000000001200AA
:06004400000000001200A4
:10004A00086A096A100E0C6E013408360936045023
:10005A00085E0550D8A0053C095ED8B007D0045008
:10006A0008260550D8B0053C0926D8900036013636
:06007A000C2EEAD7120073
:100080000001E3BF02D0839E01D0838EE3BD02D086
:10009000839C01D0838CE3BB02D0839A01D0838AF6
:1000A000E3B902D0839801D0838889B102D08484D7
:1000B00001D084948482C6DF8492E3B702D0839E09
:1000C00001D0838EE3B502D0839C01D0838CE3B34F
:1000D00002D0839A01D0838AE3B102D0839801D001
:1000E000838889B102D0848401D084948482AADF79
:0E00F000849289A102D09BDF01D094DF120020
:0E00FE0000018991DCC0E3F0BCDF89811200B3
:10010C000001E06B050EE05D0AE2E051DE25E16ED8
:10011C00000EDF21E26E200EE66EE02BF3D7E051ED
:10012C00DE25E16E000EDF21E26EE66AE007E051AB
:10013C00DE25E16F000EDF21E26F0A0E046E000E69
:10014C00056EDCC000F0DDC001F079DF08C000F006
:10015C0009C001F0300E0026E1C0E1FFE2C0E2FF71
:10016C0000C0E6FF0A0E046E000E056EDCC000F047
:10017C00DDC001F064DF00C0DCF001C0DDF0000E7A
:10018C00011802E1000E001801E102D0E007CFD700
:02019C0012004F
:10019E000134083609360450085E0550D8A0053CD7
:1001AE00095E003601360F0E0C6E01340836093624
:1001BE00045000A006D0085E0550D8A0053C095E8C
:1001CE0005D008260550D8B0053C09260036013664
:1001DE000C2EEBD700B006D0045008260550D8B030
:0801EE00053C09260000120087
:0E01F600ACB202D00000FCD7D2C0ADFF1200A8
:100204000001D86BD96BD2C0DAF0D3C0DBF0800E1A
:10021400D319006E800E005C02E1000ED25D0BE289
:10022400010ED86F000ED96FD2510008DA6FD3C017
:10023400DBF0000EDB57DAC0DCF0DBC0DDF0D4C04D
:10024400DEF0D5C0DFF060DF060ED66F000ED76F8C
:10025400000E006ED751005C02E1D651000819E28D
:10026400D651D425E16ED751D521E26E010ED65D6B
:10027400006E000ED759016E0050D425E96E01506E
:10028400D521EA6EEECFE6FF010ED65F000ED75BF6
:10029400DFD7D4C0E1FFD5C0E2FF200EE66ED8510F
:1002A400D9111AE0D66BD76BD651D425E96ED75144
:1002B400D521EA6EEE50200A03E1D64BD72BF4D7B2
:1002C400010ED65F000ED75BD651D425E16ED7510F
:0A02D400D521E26E2D0EE66E120039
:1002DE000B6A0A6A096A086A0E6A03340836045001
:1002EE00085E0550D8A0053C095E0650D8A0063C15
:1002FE000A5E0750D8A0073C0B5EE86AD8A0010E34
:10030E000E5E0336070E0C6E0334083609360A36B7
:10031E000B360E36045003A012D0085E0550D8A03E
:10032E00053C095E0650D8A0063C0A5E0750D8A0D0
:10033E00073C0B5EE86AD8A0010E0E5E11D00826AF
:10034E000550D8B0053C09260650D8B0063C0A2602
:10035E000750D8B0073C0B26E86AD8B0010E0E261F
:10036E0003360C2ED1D70234083609360A360B3630
:10037E000E36045003A012D0085E0550D8A0053CDE
:10038E00095E0650D8A0063C0A5E0750D8A0073C6E
:10039E000B5EE86AD8A0010E0E5E11D0082605503D
:1003AE00D8B0053C09260650D8B0063C0A260750A0
:1003BE00D8B0073C0B26E86AD8B0010E0E260236DE
:1003CE00070E0C6E0234083609360A360B360E3618
:1003DE00045002A012D0085E0550D8A0053C095E5C
:1003EE000650D8A0063C0A5E0750D8A0073C0B5E0C
:1003FE00E86AD8A0010E0E5E11D008260550D8B0BE
:10040E00053C09260650D8B0063C0A260750D8B03F
:10041E00073C0B26E86AD8B0010E0E2602360C2ECB
:10042E00D1D70134083609360A360B360E3604504B
:10043E0002A012D0085E0550D8A0053C095E0650F9
:10044E00D8A0063C0A5E0750D8A0073C0B5EE86AAF
:10045E00D8A0010E0E5E11D008260550D8B0053C6E
:10046E0009260650D8B0063C0A260750D8B0073CDD
:10047E000B26E86AD8B0010E0E260136070E0C6E5A
:10048E000134083609360A360B360E36045001A0F2
:10049E0012D0085E0550D8A0053C095E0650D8A0C3
:1004AE00063C0A5E0750D8A0073C0B5EE86AD8A04F
:1004BE00010E0E5E11D008260550D8B0053C092657
:1004CE000650D8B0063C0A260750D8B0073C0B267B
:1004DE00E86AD8B0010E0E2601360C2ED1D70034A4
:1004EE00083609360A360B360E36045001A012D0E5
:1004FE00085E0550D8A0053C095E0650D8A0063C03
:10050E000A5E0750D8A0073C0B5EE86AD8A0010E21
:10051E000E5E11D008260550D8B0053C09260650AF
:10052E00D8B0063C0A260750D8B0073C0B26E86A1E
:10053E00D8B0010E0E260036070E0C6E00340836AB
:10054E0009360A360B360E36045000A012D0085E5D
:10055E000550D8A0053C095E0650D8A0063C0A5EA0
:10056E000750D8A0073C0B5EE86AD8A0010E0E5EBD
:10057E0011D008260550D8B0053C09260650D8B033
:10058E00063C0A260750D8B0073C0B26E86AD8B0BE
:10059E00010E0E2600360C2ED1D700B00ED0045010
:1005AE0008260550D8B0053C09260650D8B0063CA2
:0C05BE000A260750D8B0073C0B2612009C
:1005CA00AECF01F0ABA202D0AB98AB8801C000F06D
:0205DA0012000D
:1005DC0010D0800E0001D26F1AD0C00ED26F17D07F
:1005EC00940ED26F14D0D40ED26F11D0800ED26F65
:1005FC000ED00001D251010AECE0D251020AEDE01A
:10060C00D251030AEDE0D251040AEDE0EFD7D30545
:10061C00006ED251002600C0D2F000C0E3F02ADDFB
:10062C008991D66BD651D425E96E000ED521EA6E90
:10063C00EE520BE0D651D425E96E000ED521EA6EB0
:0E064C00EECFDCF056DDD62BEDD78981120003
:10065A00016A026A800E0218006E800E0001D51926
:10066A00005C02E1D451015C0BE20150D225E16E3B
:10067A000250D321E26E200EE66E014A022AEAD720
:02068A0012005C
:0A068C00000E9EBA010E006E12006F
:100696008A0E0001D26F000ED36F100ED46F000EBB
:1006A600D56FD8DF64C0D2F065C0D3F0BC0ED46F6E
:1006B600000ED56FA4DD15D06D0E8A6F740E8B6F8C
:1006C6001DD06B0E8A6F700E8B6F18D06B0E8A6FF3
:1006D600690E8B6F13D06B0E8A6F640E8B6F0ED004
:1006E6000DD08851000AE8E08851010AEAE08851F5
:1006F600020AECE08851030AEEE0F2D7C46BC56B40
:10070600800EC519006E800E005C02E1080EC45D05
:100716000DE2BC0EC425E96E000EC521EA6EEE5050
:10072600200A01E003D0C44BC52BEAD7020EC66FE0
:10073600000EC76F800EC519006E800E005C02E1C8
:10074600080EC45D1DE2BC0EC425E96E000EC5216F
:10075600EA6EEE500A0A01E113D08A0EC625E16E52
:10076600000EC721E26EBC0EC425E96E000EC5213F
:10077600EA6EEECFE6FFC44BC52BC64BC72BDAD7C6
:0207860012005F
:100788000001C26BC36BC05342E0C051FF0AD8A43A
:10079800C00778DF0050000A01E1FBD712DF00C074
:1007A800C1F00001C251BC25E16E000EBD21E26E10
:1007B80000C0E6FFC22BC351BE25E96E000EBF2163
:1007C800EA6EEE50C11902E1C32B09D0C36BBEC05B
:1007D800E9FFBFC0EAFFEE50C119D8B4C32BC3511B
:1007E800BE25E96E000EBF21EA6EEE50000A0EE14A
:1007F800C351C25D006E016A000E015A0050BC254B
:10080800E16E0150BD21E26EE66A06D0BCD7BCC0DD
:0A081800E1FFBDC0E2FFE66A120036
:100822000900F5CFE6FF0006FBE10106F9E112003F
:10083200969296949598959A959C959E8492849476
:10084200839E839C839A839817EC00F017EC00F048
:1008520017EC00F0838A8388848222EC00F0849271
:1008620017EC00F0848222EC00F0849217EC00F086
:10087200848222EC00F0849217EC00F08398848248
:1008820022EC00F0849217EC00F0848222EC00F05B
:100892008492839A838E848222EC00F0849217ECF5
:1008A20000F0839E8388848222EC00F084928398F5
:1008B200848222EC00F0849217EC00F0848222EC15
:1008C20000F084928388848222EC00F0849217ECF8
:1008D20000F08398848222EC00F08492838E838CD1
:1008E200838A8388848222EC00F0849217EC00F0E1
:0608F200000189811200E3
:1008F800F60E0001A26F010EA36FD20EA46F000EB8
:10090800A56FCA0EA66F050EA76F000EA86F000E82
:10091800A96F8C0E9A6F060E9B6F000E9C6F000ECF
:100928009D6FFF0E9E6FFF0E9F6F000EA06F000E53
:10093800A16FAC8A900EAB6E948E949C9EAA03D045
:08094800AECF00F0FBD7120056
:100950000450000A08E10550000A05E1FF0E006E90
:100960007F0E016E58D00D6A096A086A01500010A6
:10097000D8B4000C015005180A6E0ABE0D1E0B6A91
:1009800005AE05D0041E051E042AD8B4052A01AE02
:1009900005D0001E011E002AD8B4012A01500510FE
:1009A0000A6E0ABE10D0CFEC00F00BB020D00DAE16
:1009B000000C001E011E002AD8B4012A081E091EC0
:1009C000082AD8B4092A000C05AE0DD001BE07D004
:1009D0000150096E0050086E016A006AE8D7016A8A
:1009E000006A002A000C011E001E0B2ADDD7082A0F
:1009F000D8B4092A0450085CD8A4D9D70550095C9A
:100A0000D8A4D5D7096A086A002AD8B4012A01AE49
:080A1000CED70000FF0C12001C
:100A18000B6A0A6A096A00500402F4CF09F0F3CF9E
:100A280008F001500502F4CF0BF0F3CF0AF00050A4
:100A38000502F3500926F4500A22E86A0B220150F5
:100A48000402F3500926F4500A22E86A0B2208C06F
:100A580000F009C001F00AC002F00BC003F0120058
:100A6800020E0001D26F010ED36F150ED46F000E67
:100A7800D56FB0DD67C0D2F068C0D3F07F0ED46FF9
:100A8800000ED56F02EC01F0020ED26F0B0ED36F81
:0C0A98007F0ED46F000ED56F9DDD1200A4
:100AA4000001BF6BBCC0E9FFBDC0EAFFEECFBEF0E2
:100AB400BE51000A0FE0BEC0D2F0FBEC00F0000112
:100AC400BF2BBF51BC25E96E000EBD21EA6EEECFEF
:060AD400BEF0EED7120097
:100ADA00600E046EEA0E056E000E066E076E69C0A1
:100AEA0000F06AC001F06BC002F06CC003F06FEC5A
:100AFA0001F000C0C5F001C0C6F0600E046EEA0E37
:100B0A00056E000E066E076E69C000F06AC001F03D
:100B1A006BC002F06CC003F06FEC01F008C000F08B
:100B2A0009C001F00AC002F00BC003F000C0CEF009
:100B3A0001C0CFF002C0D0F003C0D1F0CEC069F03E
:100B4A00CFC06AF0D0C06BF0D1C06CF0E80E046E72
:100B5A00030E056E000E066E076ECEC000F0CFC003
:100B6A0001F0D0C002F0D1C003F06FEC01F000C078
:100B7A00C3F001C0C4F0E80E046E030E056E000E49
:100B8A00066E076ECEC000F0CFC001F0D0C002F0F2
:100B9A00D1C003F06FEC01F008C000F009C001F009
:100BAA000AC002F00BC003F000C069F001C06AF08D
:100BBA0002C06BF003C06CF06D0E0001D26F000E24
:100BCA00D36F100ED46F000ED56F42DD69C0D2F01C
:100BDA006AC0D3F0C70ED46F000ED56F02EC01F0D5
:100BEA00CC51200A03E0CCC0BCF002D0300EBC6F5E
:100BFA00BCC07CF0CB51200A03E0CBC0BDF002D0D0
:100C0A00300EBD6FBDC07BF0CA51200A03E0CAC0D6
:100C1A00BEF002D0300EBE6FBEC07AF03A0E796EC8
:100C2A00C3C0D2F0C4C0D3F0C70ED46F000ED56FC4
:100C3A0002EC01F0CC51200A03E0CCC0BFF002D094
:100C4A00300EBF6FBFC078F0CB51200A03E0CBC093
:100C5A00C0F002D0300EC06FC0C077F03A0E766E88
:100C6A00800EC619006E800E005C02E1640EC55D3E
:100C7A001FE2C5C0D2F0C6C0D3F0C70ED46F000EB3
:100C8A00D56F02EC01F0CC51200A03E0CCC0C1F0D0
:100C9A0002D0300EC16FC1C075F0CB51200A03E0FB
:100CAA00CBC0C2F002D0300EC26FC2C074F006D000
:100CBA002B0E756E390E746E390E736E4C0E6D6E88
:0A0CCA00610E6E6E700E6F6E120068
:100CD40053EC08F0D58ED59CD59AD598D596D59455
:100CE400D592D590FC0ED76E180ED66EF28AF29479
:100CF400F28EF28C0E0EC16E9ADD0C0EE36F40EC98
:100D040000F0010EE36F40EC00F0B886B06ACF0E3D
:100D1400AF6EAC84EFDD0B0E0B6E260E0C6E5D0E0B
:100D24000D6E0D2EFED70C2EFCD70B2EFAD700001D
:100D3400000093809382938493869388876B7D6A63
:100D44007E6A666A596A5A6A5B6A556A566A576A5B
:100D5400586A676A686A626A636A646A656A5C6A2E
:100D64005D6A5E6A5F6A606A616A886B696A6A6AF8
:100D74006B6A6C6ABA6BBB6B010ED26F010ED36FD8
:100D8400370ED46F000ED56F27DC020ED26F010E22
:100D9400D36F310ED46F000ED56F1EDC62C0D2F05B
:100DA40063C0D3F07F0ED46F000ED56F02EC01F058
:100DB400020ED26F0B0ED36F7F0ED46F000ED56F61
:100DC4000BDC62DC005225E0AA0EBC6F000EBD6F86
:100DD4004C0EBE6F000EBF6F100EC06FD3DCAA5155
:100DE4004C0A17E15CC069F05DC06AF05EC06BF04C
:100DF4005FC06CF05C6A5D6A5E6A5F6A6CDE020EFC
:100E0400D26F010ED36F6D0ED46F000ED56FEEEC62
:100E140002F081B005D08751000A02E1010E876F0C
:100E240081A020D08751010A1DE1876BBA51645E0D
:100E3400BB51655A010EBA25006E000EBB21016E2E
:100E44000A0E046E000E056E25EC00F008C000F0DA
:100E540009C001F000C0BAF001C0BBF00050642624
:100E64000150652281B205D07D50000A02E1010ED5
:100E74007D6E81A213D07D50010A10E17D6A64C0A9
:100E840000F065C001F00A0E046E000E056EC2DDAE
:100E940000C064F001C065F0BA6BBB6B81B405D0CF
:100EA4007E50000A02E1010E7E6E81A467D07E505E
:100EB400010A64E17E6A646A656ABA6BBB6B885135
:100EC400010F006E016A000E0122040E046E000E72
:100ED400056E3CDD08C000F009C001F000C088F0D8
:100EE4003ED0010E0001D26F010ED36F4E0ED46FAF
:100EF400000ED56FEEEC02F062C067F063C068F0DC
:100F04003CD0010ED26F010ED36F3E0ED46F000E93
:100F1400D56FEEEC02F055C067F056C068F02DD0E6
:100F2400010ED26F010ED36F450ED46F000ED56F34
:100F3400EEEC02F05AC067F05BC068F01ED0010E00
:100F4400D26F010ED36F2A0ED46F000ED56FEEEC64
:100F540002F057C067F058C068F00FD00ED00001FF
:100F64008851000ABEE08851010ACBE08851020A88
:100F7400D7E08851030AE3E0F1D774DD81B605D0E8
:100F84006650000A02E1010E666E81A633D06650F7
:100F9400010A30E1666A4BEC03F08A0EBC6F000E66
:100FA400BD6F7EDD15D064C062F065C063F01DD0F6
:100FB40064C055F065C056F018D064C05AF065C0DE
:100FC4005BF013D064C057F065C058F00ED00DD05C
:100FD4008851000AE8E08851010AEAE08851020ACF
:100FE400ECE08851030AEEE0F2D764C067F065C014
:100FF40068F038DD81B805D05950000A02E1010ECD
:10100400596E81A818D05950010A15E1596A6050E7
:10101400611008E0280EBC6F000EBD6F41DD606AF0
:10102400616A09D0260EBC6F000EBD6F39DD010E5A
:10103400606E000E616E64C0D2F065C0D3F07F0EA6
:10104400D46F000ED56F02EC01F0010ED26F0B0EBF
:10105400D36F7F0ED46F000ED56FEEEC02F0B1D6D5
:02106400FFD7B4
:1010A60010EE15F0400E006E010E016E660EF66E25
:0E10B600100EF76E000EF86E11EC04F0120032
:10106600507265763A202020202020202020202043
:011076000079
:02107700670010
:02107900730002
:07107B004B643A2020200025
:06108200507265763A0091
:0710880053706565643A0036
:07108F004B703A2020200005
:071096004B693A2020200005
:02109D00200031
:07109F0053706565643A001F
:020000040030CA
:0D000100021F1EFF8381FF0FC00FE00F40A4
:00000001FF
